{
  "_format": "hh-sol-artifact-1",
  "contractName": "CrowdfundingV1",
  "sourceName": "contracts/CrowdfundingV1.sol",
  "abi": [
    {
      "inputs": [],
      "stateMutability": "nonpayable",
      "type": "constructor"
    },
    {
      "inputs": [
        {
          "internalType": "address",
          "name": "target",
          "type": "address"
        }
      ],
      "name": "AddressEmptyCode",
      "type": "error"
    },
    {
      "inputs": [
        {
          "internalType": "address",
          "name": "implementation",
          "type": "address"
        }
      ],
      "name": "ERC1967InvalidImplementation",
      "type": "error"
    },
    {
      "inputs": [],
      "name": "ERC1967NonPayable",
      "type": "error"
    },
    {
      "inputs": [],
      "name": "FailedCall",
      "type": "error"
    },
    {
      "inputs": [],
      "name": "InvalidInitialization",
      "type": "error"
    },
    {
      "inputs": [],
      "name": "NotInitializing",
      "type": "error"
    },
    {
      "inputs": [
        {
          "internalType": "address",
          "name": "owner",
          "type": "address"
        }
      ],
      "name": "OwnableInvalidOwner",
      "type": "error"
    },
    {
      "inputs": [
        {
          "internalType": "address",
          "name": "account",
          "type": "address"
        }
      ],
      "name": "OwnableUnauthorizedAccount",
      "type": "error"
    },
    {
      "inputs": [],
      "name": "ReentrancyGuardReentrantCall",
      "type": "error"
    },
    {
      "inputs": [],
      "name": "UUPSUnauthorizedCallContext",
      "type": "error"
    },
    {
      "inputs": [
        {
          "internalType": "bytes32",
          "name": "slot",
          "type": "bytes32"
        }
      ],
      "name": "UUPSUnsupportedProxiableUUID",
      "type": "error"
    },
    {
      "anonymous": false,
      "inputs": [
        {
          "indexed": true,
          "internalType": "uint256",
          "name": "campaignId",
          "type": "uint256"
        },
        {
          "indexed": true,
          "internalType": "address",
          "name": "creator",
          "type": "address"
        },
        {
          "indexed": false,
          "internalType": "uint256",
          "name": "goal",
          "type": "uint256"
        },
        {
          "indexed": false,
          "internalType": "uint256",
          "name": "deadline",
          "type": "uint256"
        }
      ],
      "name": "CampaignCreated",
      "type": "event"
    },
    {
      "anonymous": false,
      "inputs": [
        {
          "indexed": true,
          "internalType": "uint256",
          "name": "campaignId",
          "type": "uint256"
        },
        {
          "indexed": true,
          "internalType": "address",
          "name": "donor",
          "type": "address"
        },
        {
          "indexed": false,
          "internalType": "uint256",
          "name": "amount",
          "type": "uint256"
        }
      ],
      "name": "DonationReceived",
      "type": "event"
    },
    {
      "anonymous": false,
      "inputs": [
        {
          "indexed": true,
          "internalType": "uint256",
          "name": "campaignId",
          "type": "uint256"
        },
        {
          "indexed": true,
          "internalType": "address",
          "name": "creator",
          "type": "address"
        },
        {
          "indexed": false,
          "internalType": "uint256",
          "name": "amount",
          "type": "uint256"
        }
      ],
      "name": "FundsWithdrawn",
      "type": "event"
    },
    {
      "anonymous": false,
      "inputs": [
        {
          "indexed": false,
          "internalType": "uint64",
          "name": "version",
          "type": "uint64"
        }
      ],
      "name": "Initialized",
      "type": "event"
    },
    {
      "anonymous": false,
      "inputs": [
        {
          "indexed": true,
          "internalType": "address",
          "name": "previousOwner",
          "type": "address"
        },
        {
          "indexed": true,
          "internalType": "address",
          "name": "newOwner",
          "type": "address"
        }
      ],
      "name": "OwnershipTransferred",
      "type": "event"
    },
    {
      "anonymous": false,
      "inputs": [
        {
          "indexed": true,
          "internalType": "uint256",
          "name": "campaignId",
          "type": "uint256"
        },
        {
          "indexed": true,
          "internalType": "address",
          "name": "donor",
          "type": "address"
        },
        {
          "indexed": false,
          "internalType": "uint256",
          "name": "amount",
          "type": "uint256"
        }
      ],
      "name": "RefundIssued",
      "type": "event"
    },
    {
      "anonymous": false,
      "inputs": [
        {
          "indexed": true,
          "internalType": "address",
          "name": "implementation",
          "type": "address"
        }
      ],
      "name": "Upgraded",
      "type": "event"
    },
    {
      "inputs": [],
      "name": "UPGRADE_INTERFACE_VERSION",
      "outputs": [
        {
          "internalType": "string",
          "name": "",
          "type": "string"
        }
      ],
      "stateMutability": "view",
      "type": "function"
    },
    {
      "inputs": [],
      "name": "campaignCount",
      "outputs": [
        {
          "internalType": "uint256",
          "name": "",
          "type": "uint256"
        }
      ],
      "stateMutability": "view",
      "type": "function"
    },
    {
      "inputs": [
        {
          "internalType": "uint256",
          "name": "",
          "type": "uint256"
        }
      ],
      "name": "campaigns",
      "outputs": [
        {
          "internalType": "address payable",
          "name": "creator",
          "type": "address"
        },
        {
          "internalType": "uint256",
          "name": "goal",
          "type": "uint256"
        },
        {
          "internalType": "uint256",
          "name": "deadline",
          "type": "uint256"
        },
        {
          "internalType": "uint256",
          "name": "amountRaised",
          "type": "uint256"
        },
        {
          "internalType": "bool",
          "name": "withdrawn",
          "type": "bool"
        }
      ],
      "stateMutability": "view",
      "type": "function"
    },
    {
      "inputs": [
        {
          "internalType": "uint256",
          "name": "_goal",
          "type": "uint256"
        },
        {
          "internalType": "uint256",
          "name": "_durationInDays",
          "type": "uint256"
        }
      ],
      "name": "createCampaign",
      "outputs": [
        {
          "internalType": "uint256",
          "name": "",
          "type": "uint256"
        }
      ],
      "stateMutability": "nonpayable",
      "type": "function"
    },
    {
      "inputs": [
        {
          "internalType": "uint256",
          "name": "_campaignId",
          "type": "uint256"
        }
      ],
      "name": "donate",
      "outputs": [],
      "stateMutability": "payable",
      "type": "function"
    },
    {
      "inputs": [
        {
          "internalType": "uint256",
          "name": "_campaignId",
          "type": "uint256"
        }
      ],
      "name": "getCampaign",
      "outputs": [
        {
          "internalType": "address",
          "name": "creator",
          "type": "address"
        },
        {
          "internalType": "uint256",
          "name": "goal",
          "type": "uint256"
        },
        {
          "internalType": "uint256",
          "name": "deadline",
          "type": "uint256"
        },
        {
          "internalType": "uint256",
          "name": "amountRaised",
          "type": "uint256"
        },
        {
          "internalType": "bool",
          "name": "withdrawn",
          "type": "bool"
        },
        {
          "internalType": "bool",
          "name": "isActive",
          "type": "bool"
        },
        {
          "internalType": "bool",
          "name": "goalReached",
          "type": "bool"
        }
      ],
      "stateMutability": "view",
      "type": "function"
    },
    {
      "inputs": [
        {
          "internalType": "uint256",
          "name": "_campaignId",
          "type": "uint256"
        },
        {
          "internalType": "address",
          "name": "_donor",
          "type": "address"
        }
      ],
      "name": "getDonation",
      "outputs": [
        {
          "internalType": "uint256",
          "name": "",
          "type": "uint256"
        }
      ],
      "stateMutability": "view",
      "type": "function"
    },
    {
      "inputs": [
        {
          "internalType": "uint256",
          "name": "_campaignId",
          "type": "uint256"
        }
      ],
      "name": "getDonors",
      "outputs": [
        {
          "internalType": "address[]",
          "name": "",
          "type": "address[]"
        }
      ],
      "stateMutability": "view",
      "type": "function"
    },
    {
      "inputs": [],
      "name": "getVersion",
      "outputs": [
        {
          "internalType": "string",
          "name": "",
          "type": "string"
        }
      ],
      "stateMutability": "pure",
      "type": "function"
    },
    {
      "inputs": [],
      "name": "initialize",
      "outputs": [],
      "stateMutability": "nonpayable",
      "type": "function"
    },
    {
      "inputs": [],
      "name": "owner",
      "outputs": [
        {
          "internalType": "address",
          "name": "",
          "type": "address"
        }
      ],
      "stateMutability": "view",
      "type": "function"
    },
    {
      "inputs": [],
      "name": "proxiableUUID",
      "outputs": [
        {
          "internalType": "bytes32",
          "name": "",
          "type": "bytes32"
        }
      ],
      "stateMutability": "view",
      "type": "function"
    },
    {
      "inputs": [
        {
          "internalType": "uint256",
          "name": "_campaignId",
          "type": "uint256"
        }
      ],
      "name": "refund",
      "outputs": [],
      "stateMutability": "nonpayable",
      "type": "function"
    },
    {
      "inputs": [],
      "name": "renounceOwnership",
      "outputs": [],
      "stateMutability": "nonpayable",
      "type": "function"
    },
    {
      "inputs": [
        {
          "internalType": "address",
          "name": "newOwner",
          "type": "address"
        }
      ],
      "name": "transferOwnership",
      "outputs": [],
      "stateMutability": "nonpayable",
      "type": "function"
    },
    {
      "inputs": [
        {
          "internalType": "address",
          "name": "newImplementation",
          "type": "address"
        },
        {
          "internalType": "bytes",
          "name": "data",
          "type": "bytes"
        }
      ],
      "name": "upgradeToAndCall",
      "outputs": [],
      "stateMutability": "payable",
      "type": "function"
    },
    {
      "inputs": [
        {
          "internalType": "uint256",
          "name": "_campaignId",
          "type": "uint256"
        }
      ],
      "name": "withdrawFunds",
      "outputs": [],
      "stateMutability": "nonpayable",
      "type": "function"
    }
  ],
  "bytecode": "0x60a06040523060805234801561001457600080fd5b5061001d610022565b6100d4565b7ff0c57e16840df040f15088dc2f81fe391c3923bec73e23a9662efc9c229c6a00805468010000000000000000900460ff16156100725760405163f92ee8a960e01b815260040160405180910390fd5b80546001600160401b03908116146100d15780546001600160401b0319166001600160401b0390811782556040519081527fc7f505b2f371ae2175ee4913f4499e1f2633a7b5936321eed1cdaeb6115181d29060200160405180910390a15b50565b60805161173b6100fd60003960008181610f1901528181610f420152611088015261173b6000f3fe6080604052600436106100fe5760003560e01c80635598f8cc116100955780638da5cb5b116100645780638da5cb5b1461037c578063ad3cb1cc146103c3578063c2bacfa8146103f4578063f14faf6f14610439578063f2fde38b1461044c57600080fd5b80635598f8cc14610294578063715018a61461033c5780637274e30d146103515780638129fc1c1461036757600080fd5b8063278ecde1116100d1578063278ecde11461021f578063295165111461023f5780634f1ef2861461026c57806352d1902d1461027f57600080fd5b80630d8e6e2c14610103578063141961bc14610144578063155dd5ee146101cf57806322502268146101f1575b600080fd5b34801561010f57600080fd5b50604080518082019091526006815265076312e302e360d41b60208201525b60405161013b919061142e565b60405180910390f35b34801561015057600080fd5b5061019b61015f366004611461565b600060208190529081526040902080546001820154600283015460038401546004909401546001600160a01b0390931693919290919060ff1685565b604080516001600160a01b03909616865260208601949094529284019190915260608301521515608082015260a00161013b565b3480156101db57600080fd5b506101ef6101ea366004611461565b61046c565b005b3480156101fd57600080fd5b5061021161020c36600461147a565b610738565b60405190815260200161013b565b34801561022b57600080fd5b506101ef61023a366004611461565b61088f565b34801561024b57600080fd5b5061025f61025a366004611461565b610ae9565b60405161013b919061149c565b6101ef61027a36600461151b565b610b56565b34801561028b57600080fd5b50610211610b71565b3480156102a057600080fd5b506102f76102af366004611461565b600090815260208190526040902080546001820154600283015460038401546004909401546001600160a01b039093169491939092909160ff90911690428411908584101590565b604080516001600160a01b039098168852602088019690965294860193909352606085019190915215156080840152151560a0830152151560c082015260e00161013b565b34801561034857600080fd5b506101ef610b8e565b34801561035d57600080fd5b5061021160015481565b34801561037357600080fd5b506101ef610ba2565b34801561038857600080fd5b507f9016d09d72d40fdae2fd8ceac6b6234c7706214fd39c1cd1e609a0528c199300546040516001600160a01b03909116815260200161013b565b3480156103cf57600080fd5b5061012e604051806040016040528060058152602001640352e302e360dc1b81525081565b34801561040057600080fd5b5061021161040f3660046115dd565b6000828152602081815260408083206001600160a01b038516845260050190915290205492915050565b6101ef610447366004611461565b610cb2565b34801561045857600080fd5b506101ef610467366004611609565b610e87565b60008181526020819052604090205481906001600160a01b031633146104e55760405162461bcd60e51b815260206004820152602360248201527f4f6e6c792063616d706169676e2063726561746f722063616e2063616c6c207460448201526268697360e81b60648201526084015b60405180910390fd5b6104ed610ec2565b6000828152602081905260409020600281015442101561054a5760405162461bcd60e51b815260206004820152601860248201527743616d706169676e206973207374696c6c2061637469766560401b60448201526064016104dc565b8060010154816003015410156105955760405162461bcd60e51b815260206004820152601060248201526f11dbd85b081b9bdd081c995858da195960821b60448201526064016104dc565b600481015460ff16156105e45760405162461bcd60e51b8152602060048201526017602482015276233ab732399030b63932b0b23c903bb4ba34323930bbb760491b60448201526064016104dc565b600081600301541161062f5760405162461bcd60e51b81526020600482015260146024820152734e6f2066756e647320746f20776974686472617760601b60448201526064016104dc565b60048101805460ff19166001179055600381015481546040516000916001600160a01b03169083908381818185875af1925050503d806000811461068f576040519150601f19603f3d011682016040523d82523d6000602084013e610694565b606091505b50509050806106d75760405162461bcd60e51b815260206004820152600f60248201526e151c985b9cd9995c8819985a5b1959608a1b60448201526064016104dc565b82546040518381526001600160a01b039091169086907ff440aec6b52895984d061d622e6edeba6210f7c3e059be920663140c084560d79060200160405180910390a350505061073460016000805160206116e683398151915255565b5050565b60008083116107895760405162461bcd60e51b815260206004820152601b60248201527f476f616c206d7573742062652067726561746572207468616e2030000000000060448201526064016104dc565b600082116107d95760405162461bcd60e51b815260206004820152601f60248201527f4475726174696f6e206d7573742062652067726561746572207468616e20300060448201526064016104dc565b60018054600091826107ea8361163a565b90915550600081815260208190526040902080546001600160a01b03191633178155600181018690559091506108238462015180611653565b61082d904261166a565b600282018190556000600383015560048201805460ff19169055604080518781526020810192909252339184917f91b289a829e71d811b8c69e4a24ba2d40d115d8a236e9a724cb3bb2d43cf7223910160405180910390a35090505b92915050565b610897610ec2565b600081815260208190526040902060028101544210156108f45760405162461bcd60e51b815260206004820152601860248201527743616d706169676e206973207374696c6c2061637469766560401b60448201526064016104dc565b806001015481600301541061093e5760405162461bcd60e51b815260206004820152601060248201526f11dbd85b081dd85cc81c995858da195960821b60448201526064016104dc565b600481015460ff161561098d5760405162461bcd60e51b8152602060048201526017602482015276233ab732399030b63932b0b23c903bb4ba34323930bbb760491b60448201526064016104dc565b336000908152600582016020526040902054806109e05760405162461bcd60e51b8152602060048201526011602482015270139bc8191bdb985d1a5bdb88199bdd5b99607a1b60448201526064016104dc565b3360009081526005830160205260408120819055600383018054839290610a0890849061167d565b9091555050604051600090339083908381818185875af1925050503d8060008114610a4f576040519150601f19603f3d011682016040523d82523d6000602084013e610a54565b606091505b5050905080610a955760405162461bcd60e51b815260206004820152600d60248201526c1499599d5b990819985a5b1959609a1b60448201526064016104dc565b604051828152339085907f7a482fdeb6bc9a1376f597068a214a7a39472bb2eff1b8cad21ba04f49ddca1b9060200160405180910390a3505050610ae660016000805160206116e683398151915255565b50565b60008181526020818152604091829020600601805483518184028101840190945280845260609392830182828015610b4a57602002820191906000526020600020905b81546001600160a01b03168152600190910190602001808311610b2c575b50505050509050919050565b610b5e610f0e565b610b6782610fb3565b6107348282610fbb565b6000610b7b61107d565b506000805160206116c683398151915290565b610b966110c6565b610ba06000611121565b565b6000610bac611192565b805490915060ff600160401b820416159067ffffffffffffffff16600081158015610bd45750825b905060008267ffffffffffffffff166001148015610bf15750303b155b905081158015610bff575080155b15610c1d5760405163f92ee8a960e01b815260040160405180910390fd5b845467ffffffffffffffff191660011785558315610c4757845460ff60401b1916600160401b1785555b610c50336111bb565b610c586111cc565b610c606111d4565b60006001558315610cab57845460ff60401b19168555604051600181527fc7f505b2f371ae2175ee4913f4499e1f2633a7b5936321eed1cdaeb6115181d29060200160405180910390a15b5050505050565b610cba610ec2565b600081815260208190526040902060028101544210610d105760405162461bcd60e51b815260206004820152601260248201527110d85b5c185a59db881a185cc8195b99195960721b60448201526064016104dc565b60003411610d605760405162461bcd60e51b815260206004820152601f60248201527f446f6e6174696f6e206d7573742062652067726561746572207468616e20300060448201526064016104dc565b80546001600160a01b0316610db75760405162461bcd60e51b815260206004820152601760248201527f43616d706169676e20646f6573206e6f7420657869737400000000000000000060448201526064016104dc565b3360009081526005820160205260408120549003610df757600681018054600181018255600091825260209091200180546001600160a01b031916331790555b33600090815260058201602052604081208054349290610e1890849061166a565b9250508190555034816003016000828254610e33919061166a565b9091555050604051348152339083907f0b5b4c52969ff7329ecf7ee536409fda87812b15a8622bc6e8cdeab3aee14a269060200160405180910390a350610ae660016000805160206116e683398151915255565b610e8f6110c6565b6001600160a01b038116610eb957604051631e4fbdf760e01b8152600060048201526024016104dc565b610ae681611121565b6000805160206116e6833981519152805460011901610ef457604051633ee5aeb560e01b815260040160405180910390fd5b60029055565b60016000805160206116e683398151915255565b306001600160a01b037f0000000000000000000000000000000000000000000000000000000000000000161480610f9557507f00000000000000000000000000000000000000000000000000000000000000006001600160a01b0316610f896000805160206116c6833981519152546001600160a01b031690565b6001600160a01b031614155b15610ba05760405163703e46dd60e11b815260040160405180910390fd5b610ae66110c6565b816001600160a01b03166352d1902d6040518163ffffffff1660e01b8152600401602060405180830381865afa925050508015611015575060408051601f3d908101601f1916820190925261101291810190611690565b60015b61103d57604051634c9c8ce360e01b81526001600160a01b03831660048201526024016104dc565b6000805160206116c6833981519152811461106e57604051632a87526960e21b8152600481018290526024016104dc565b61107883836111e4565b505050565b306001600160a01b037f00000000000000000000000000000000000000000000000000000000000000001614610ba05760405163703e46dd60e11b815260040160405180910390fd5b336110f87f9016d09d72d40fdae2fd8ceac6b6234c7706214fd39c1cd1e609a0528c199300546001600160a01b031690565b6001600160a01b031614610ba05760405163118cdaa760e01b81523360048201526024016104dc565b7f9016d09d72d40fdae2fd8ceac6b6234c7706214fd39c1cd1e609a0528c19930080546001600160a01b031981166001600160a01b03848116918217845560405192169182907f8be0079c531659141344cd1fd0a4f28419497f9722a3daafe3b4186f6b6457e090600090a3505050565b6000807ff0c57e16840df040f15088dc2f81fe391c3923bec73e23a9662efc9c229c6a00610889565b6111c361123a565b610ae68161125f565b610ba061123a565b6111dc61123a565b610ba0611267565b6111ed8261126f565b6040516001600160a01b038316907fbc7cd75a20ee27fd9adebab32041f755214dbc6bffa90cc0225b39da2e5c2d3b90600090a28051156112325761107882826112d4565b61073461134a565b611242611369565b610ba057604051631afcd79f60e31b815260040160405180910390fd5b610e8f61123a565b610efa61123a565b806001600160a01b03163b6000036112a557604051634c9c8ce360e01b81526001600160a01b03821660048201526024016104dc565b6000805160206116c683398151915280546001600160a01b0319166001600160a01b0392909216919091179055565b6060600080846001600160a01b0316846040516112f191906116a9565b600060405180830381855af49150503d806000811461132c576040519150601f19603f3d011682016040523d82523d6000602084013e611331565b606091505b5091509150611341858383611383565b95945050505050565b3415610ba05760405163b398979f60e01b815260040160405180910390fd5b6000611373611192565b54600160401b900460ff16919050565b60608261139857611393826113e2565b6113db565b81511580156113af57506001600160a01b0384163b155b156113d857604051639996b31560e01b81526001600160a01b03851660048201526024016104dc565b50805b9392505050565b8051156113f157805160208201fd5b60405163d6bda27560e01b815260040160405180910390fd5b60005b8381101561142557818101518382015260200161140d565b50506000910152565b602081526000825180602084015261144d81604085016020870161140a565b601f01601f19169190910160400192915050565b60006020828403121561147357600080fd5b5035919050565b6000806040838503121561148d57600080fd5b50508035926020909101359150565b6020808252825182820181905260009190848201906040850190845b818110156114dd5783516001600160a01b0316835292840192918401916001016114b8565b50909695505050505050565b80356001600160a01b038116811461150057600080fd5b919050565b634e487b7160e01b600052604160045260246000fd5b6000806040838503121561152e57600080fd5b611537836114e9565b9150602083013567ffffffffffffffff8082111561155457600080fd5b818501915085601f83011261156857600080fd5b81358181111561157a5761157a611505565b604051601f8201601f19908116603f011681019083821181831017156115a2576115a2611505565b816040528281528860208487010111156115bb57600080fd5b8260208601602083013760006020848301015280955050505050509250929050565b600080604083850312156115f057600080fd5b82359150611600602084016114e9565b90509250929050565b60006020828403121561161b57600080fd5b6113db826114e9565b634e487b7160e01b600052601160045260246000fd5b60006001820161164c5761164c611624565b5060010190565b808202811582820484141761088957610889611624565b8082018082111561088957610889611624565b8181038181111561088957610889611624565b6000602082840312156116a257600080fd5b5051919050565b600082516116bb81846020870161140a565b919091019291505056fe360894a13ba1a3210667c828492db98dca3e2076cc3735a920a3ca505d382bbc9b779b17422d0df92223018b32b4d1fa46e071723d6817e2486d003becc55f00a2646970667358221220def2e9c6e0f345ae8c938cdc80d0151ece5661730227ee2bf7578ce425a1826464736f6c63430008160033",
  "linkReferences": {},
  "deployedLinkReferences": {}
}