{
  "_format": "hh3-artifact-1",
  "contractName": "Crowdfunding",
  "sourceName": "contracts/Crowfunding.sol",
  "abi": [
    {
      "anonymous": false,
      "inputs": [
        {
          "indexed": true,
          "internalType": "uint256",
          "name": "campaignId",
          "type": "uint256"
        },
        {
          "indexed": true,
          "internalType": "address",
          "name": "creator",
          "type": "address"
        },
        {
          "indexed": false,
          "internalType": "uint256",
          "name": "goal",
          "type": "uint256"
        },
        {
          "indexed": false,
          "internalType": "uint256",
          "name": "deadline",
          "type": "uint256"
        }
      ],
      "name": "CampaignCreated",
      "type": "event"
    },
    {
      "inputs": [],
      "name": "campaignCount",
      "outputs": [
        {
          "internalType": "uint256",
          "name": "",
          "type": "uint256"
        }
      ],
      "stateMutability": "view",
      "type": "function"
    },
    {
      "inputs": [
        {
          "internalType": "uint256",
          "name": "_goal",
          "type": "uint256"
        },
        {
          "internalType": "uint256",
          "name": "_durationInDays",
          "type": "uint256"
        }
      ],
      "name": "createCampaign",
      "outputs": [
        {
          "internalType": "uint256",
          "name": "",
          "type": "uint256"
        }
      ],
      "stateMutability": "nonpayable",
      "type": "function"
    },
    {
      "inputs": [
        {
          "internalType": "uint256",
          "name": "campaignId",
          "type": "uint256"
        }
      ],
      "name": "getCampaign",
      "outputs": [
        {
          "internalType": "address",
          "name": "creator",
          "type": "address"
        },
        {
          "internalType": "uint256",
          "name": "goal",
          "type": "uint256"
        },
        {
          "internalType": "uint256",
          "name": "deadline",
          "type": "uint256"
        },
        {
          "internalType": "uint256",
          "name": "amountRaised",
          "type": "uint256"
        },
        {
          "internalType": "bool",
          "name": "withdrawn",
          "type": "bool"
        },
        {
          "internalType": "bool",
          "name": "isActive",
          "type": "bool"
        },
        {
          "internalType": "bool",
          "name": "goalReached",
          "type": "bool"
        }
      ],
      "stateMutability": "view",
      "type": "function"
    }
  ],
  "bytecode": "0x6080604052348015600e575f5ffd5b506103268061001c5f395ff3fe608060405234801561000f575f5ffd5b506004361061003f575f3560e01c806322502268146100435780635598f8cc146100695780637274e30d14610104575b5f5ffd5b610056610051366004610263565b61010c565b6040519081526020015b60405180910390f35b6100bf610077366004610283565b5f908152600160208190526040909120805491810154600282015460038301546006909301546001600160a01b0390941694919390929160ff90911690428411908584101590565b604080516001600160a01b039098168852602088019690965294860193909352606085019190915215156080840152151560a0830152151560c082015260e001610060565b6100565f5481565b5f5f83116101615760405162461bcd60e51b815260206004820152601b60248201527f476f616c206d7573742062652067726561746572207468616e2030000000000060448201526064015b60405180910390fd5b5f82116101b05760405162461bcd60e51b815260206004820152601f60248201527f4475726174696f6e206d7573742062652067726561746572207468616e2030006044820152606401610158565b5f805481806101be836102ae565b909155505f81815260016020819052604090912080546001600160a01b031916331781559081018690559091506101f884620151806102c6565b61020290426102dd565b600282018190555f600383015560068201805460ff19169055604080518781526020810192909252339184917f91b289a829e71d811b8c69e4a24ba2d40d115d8a236e9a724cb3bb2d43cf7223910160405180910390a35090505b92915050565b5f5f60408385031215610274575f5ffd5b50508035926020909101359150565b5f60208284031215610293575f5ffd5b5035919050565b634e487b7160e01b5f52601160045260245ffd5b5f600182016102bf576102bf61029a565b5060010190565b808202811582820484141761025d5761025d61029a565b8082018082111561025d5761025d61029a56fea26469706673582212206abfeef489de69dd68cb063377c9c910e93749434699bce2429fe0e75b37b13364736f6c634300081c0033",
  "linkReferences": {},
  "deployedLinkReferences": {},
  "immutableReferences": {},
  "inputSourceName": "project/contracts/Crowfunding.sol",
  "buildInfoId": "solc-0_8_28-a9add0cccef2760dfc69f2d7761e2c2c11c8c226"
}