{
  "_format": "hh3-artifact-1",
  "contractName": "Crowdfunding",
  "sourceName": "contracts/Crowdfunding.sol",
  "abi": [
    {
      "anonymous": false,
      "inputs": [
        {
          "indexed": true,
          "internalType": "uint256",
          "name": "campaignId",
          "type": "uint256"
        },
        {
          "indexed": true,
          "internalType": "address",
          "name": "creator",
          "type": "address"
        },
        {
          "indexed": false,
          "internalType": "uint256",
          "name": "goal",
          "type": "uint256"
        },
        {
          "indexed": false,
          "internalType": "uint256",
          "name": "deadline",
          "type": "uint256"
        }
      ],
      "name": "CampaignCreated",
      "type": "event"
    },
    {
      "anonymous": false,
      "inputs": [
        {
          "indexed": true,
          "internalType": "uint256",
          "name": "campaignId",
          "type": "uint256"
        },
        {
          "indexed": true,
          "internalType": "address",
          "name": "donor",
          "type": "address"
        },
        {
          "indexed": false,
          "internalType": "uint256",
          "name": "amount",
          "type": "uint256"
        }
      ],
      "name": "DonateReceived",
      "type": "event"
    },
    {
      "inputs": [],
      "name": "campaignCount",
      "outputs": [
        {
          "internalType": "uint256",
          "name": "",
          "type": "uint256"
        }
      ],
      "stateMutability": "view",
      "type": "function"
    },
    {
      "inputs": [
        {
          "internalType": "uint256",
          "name": "_goal",
          "type": "uint256"
        },
        {
          "internalType": "uint256",
          "name": "_durationInDays",
          "type": "uint256"
        }
      ],
      "name": "createCampaign",
      "outputs": [
        {
          "internalType": "uint256",
          "name": "",
          "type": "uint256"
        }
      ],
      "stateMutability": "nonpayable",
      "type": "function"
    },
    {
      "inputs": [
        {
          "internalType": "uint256",
          "name": "_amount",
          "type": "uint256"
        },
        {
          "internalType": "uint256",
          "name": "_campaignId",
          "type": "uint256"
        }
      ],
      "name": "donate",
      "outputs": [],
      "stateMutability": "nonpayable",
      "type": "function"
    },
    {
      "inputs": [
        {
          "internalType": "uint256",
          "name": "_campaignId",
          "type": "uint256"
        }
      ],
      "name": "getAllDonors",
      "outputs": [
        {
          "internalType": "address[]",
          "name": "",
          "type": "address[]"
        }
      ],
      "stateMutability": "view",
      "type": "function"
    },
    {
      "inputs": [
        {
          "internalType": "uint256",
          "name": "campaignId",
          "type": "uint256"
        }
      ],
      "name": "getCampaign",
      "outputs": [
        {
          "internalType": "address",
          "name": "creator",
          "type": "address"
        },
        {
          "internalType": "uint256",
          "name": "goal",
          "type": "uint256"
        },
        {
          "internalType": "uint256",
          "name": "deadline",
          "type": "uint256"
        },
        {
          "internalType": "uint256",
          "name": "amountRaised",
          "type": "uint256"
        },
        {
          "internalType": "bool",
          "name": "withdrawn",
          "type": "bool"
        },
        {
          "internalType": "bool",
          "name": "isActive",
          "type": "bool"
        },
        {
          "internalType": "bool",
          "name": "goalReached",
          "type": "bool"
        }
      ],
      "stateMutability": "view",
      "type": "function"
    }
  ],
  "bytecode": "0x6080604052348015600e575f5ffd5b506106788061001c5f395ff3fe608060405234801561000f575f5ffd5b5060043610610055575f3560e01c80630cdd53f614610059578063225022681461006e5780632495efb8146100945780635598f8cc146100b45780637274e30d1461014f575b5f5ffd5b61006c61006736600461056a565b610157565b005b61008161007c36600461056a565b6103ac565b6040519081526020015b60405180910390f35b6100a76100a236600461058a565b6104fe565b60405161008b91906105a1565b61010a6100c236600461058a565b5f908152600160208190526040909120805491810154600282015460038301546006909301546001600160a01b0390941694919390929160ff90911690428411908584101590565b604080516001600160a01b039098168852602088019690965294860193909352606085019190915215156080840152151560a0830152151560c082015260e00161008b565b6100815f5481565b5f82116101ab5760405162461bcd60e51b815260206004820152601a60248201527f416d6f756e74206d7573742067726561746572207468616e203000000000000060448201526064015b60405180910390fd5b5f81815260016020526040902080546001600160a01b031661020f5760405162461bcd60e51b815260206004820152601760248201527f43616d706169676e20646f6573206e6f7420657869737400000000000000000060448201526064016101a2565b600681015460ff16156102645760405162461bcd60e51b815260206004820152601b60248201527f43616d706169676e20686173206265656e2077697468647261776e000000000060448201526064016101a2565b806002015442106102ae5760405162461bcd60e51b815260206004820152601460248201527310d85b5c185a59db881a185cc8195e1c1a5c995960621b60448201526064016101a2565b80600101548160030154106103055760405162461bcd60e51b815260206004820152601d60248201527f43616d706169676e2068617320726561636865642074686520676f616c00000060448201526064016101a2565b82816003015f8282546103189190610600565b9091555050335f9081526004820160205260408120805485929061033d908490610600565b90915550506005810180546001810182555f91825260209091200180546001600160a01b0319163390811790915560405183907fd043fbd3e5b60b9520e258ac2112e48c46f68e7d1770c911ba440b91e2c8c6c59061039f9087815260200190565b60405180910390a3505050565b5f5f83116103fc5760405162461bcd60e51b815260206004820152601b60248201527f476f616c206d7573742062652067726561746572207468616e2030000000000060448201526064016101a2565b5f821161044b5760405162461bcd60e51b815260206004820152601f60248201527f4475726174696f6e206d7573742062652067726561746572207468616e20300060448201526064016101a2565b5f8054818061045983610613565b909155505f81815260016020819052604090912080546001600160a01b03191633178155908101869055909150610493846201518061062b565b61049d9042610600565b600282018190555f600383015560068201805460ff19169055604080518781526020810192909252339184917f91b289a829e71d811b8c69e4a24ba2d40d115d8a236e9a724cb3bb2d43cf7223910160405180910390a35090505b92915050565b5f8181526001602090815260409182902060050180548351818402810184019094528084526060939283018282801561055e57602002820191905f5260205f20905b81546001600160a01b03168152600190910190602001808311610540575b50505050509050919050565b5f5f6040838503121561057b575f5ffd5b50508035926020909101359150565b5f6020828403121561059a575f5ffd5b5035919050565b602080825282518282018190525f918401906040840190835b818110156105e15783516001600160a01b03168352602093840193909201916001016105ba565b509095945050505050565b634e487b7160e01b5f52601160045260245ffd5b808201808211156104f8576104f86105ec565b5f60018201610624576106246105ec565b5060010190565b80820281158282048414176104f8576104f86105ec56fea26469706673582212206d5799f88611e3f0235d34eb812a7baa5b120f4ed692dbd5dea8a7e77f8a9df064736f6c634300081c0033",
  "linkReferences": {},
  "deployedLinkReferences": {},
  "immutableReferences": {},
  "inputSourceName": "project/contracts/Crowdfunding.sol",
  "buildInfoId": "solc-0_8_28-f080a345b20a0cdff37a3938e6ac4d4047b87dc6"
}